{
  "_format": "hh-sol-artifact-1",
  "contractName": "Transactions",
  "sourceName": "contracts/Transactions.sol",
  "abi": [
    {
      "anonymous": false,
      "inputs": [
        {
          "indexed": false,
          "internalType": "address",
          "name": "from",
          "type": "address"
        },
        {
          "indexed": false,
          "internalType": "address",
          "name": "receiver",
          "type": "address"
        },
        {
          "indexed": false,
          "internalType": "uint256",
          "name": "amount",
          "type": "uint256"
        },
        {
          "indexed": false,
          "internalType": "string",
          "name": "message",
          "type": "string"
        },
        {
          "indexed": false,
          "internalType": "uint256",
          "name": "timestamp",
          "type": "uint256"
        },
        {
          "indexed": false,
          "internalType": "string",
          "name": "keyword",
          "type": "string"
        }
      ],
      "name": "Transfer",
      "type": "event"
    },
    {
      "inputs": [
        {
          "internalType": "address payable",
          "name": "receiver",
          "type": "address"
        },
        {
          "internalType": "uint256",
          "name": "amount",
          "type": "uint256"
        },
        {
          "internalType": "string",
          "name": "message",
          "type": "string"
        },
        {
          "internalType": "string",
          "name": "keyword",
          "type": "string"
        }
      ],
      "name": "addToBlockchain",
      "outputs": [],
      "stateMutability": "nonpayable",
      "type": "function"
    },
    {
      "inputs": [],
      "name": "getAllTranscations",
      "outputs": [
        {
          "components": [
            {
              "internalType": "address",
              "name": "sender",
              "type": "address"
            },
            {
              "internalType": "address",
              "name": "receiver",
              "type": "address"
            },
            {
              "internalType": "uint256",
              "name": "amount",
              "type": "uint256"
            },
            {
              "internalType": "string",
              "name": "message",
              "type": "string"
            },
            {
              "internalType": "uint256",
              "name": "timestamp",
              "type": "uint256"
            },
            {
              "internalType": "string",
              "name": "keyword",
              "type": "string"
            }
          ],
          "internalType": "struct Transactions.TransferStruct[]",
          "name": "",
          "type": "tuple[]"
        }
      ],
      "stateMutability": "view",
      "type": "function"
    },
    {
      "inputs": [],
      "name": "getTranscationCount",
      "outputs": [
        {
          "internalType": "uint256",
          "name": "",
          "type": "uint256"
        }
      ],
      "stateMutability": "view",
      "type": "function"
    }
  ],
  "bytecode": "0x608060405234801561001057600080fd5b50610bca806100206000396000f3fe608060405234801561001057600080fd5b50600436106100415760003560e01c80634c08488114610046578063cc2d7ead14610064578063d18c437b14610080575b600080fd5b61004e61009e565b60405161005b9190610498565b60405180910390f35b61007e6004803603810190610079919061066d565b6100a3565b005b610088610257565b604051610095919061071b565b60405180910390f35b606090565b60016000808282546100b59190610765565b9250508190555060016040518060c001604052803373ffffffffffffffffffffffffffffffffffffffff1681526020018673ffffffffffffffffffffffffffffffffffffffff16815260200185815260200184815260200142815260200183815250908060018154018082558091505060019003906000526020600020906006020160009091909190915060008201518160000160006101000a81548173ffffffffffffffffffffffffffffffffffffffff021916908373ffffffffffffffffffffffffffffffffffffffff16021790555060208201518160010160006101000a81548173ffffffffffffffffffffffffffffffffffffffff021916908373ffffffffffffffffffffffffffffffffffffffff1602179055506040820151816002015560608201518160030190816101ed91906109a5565b506080820151816004015560a082015181600501908161020d91906109a5565b5050507f416cfa4330a4565f45c2fd2dd4826a83a37443aba2ce6f79477c7355afac35fa33858585428660405161024996959493929190610b25565b60405180910390a150505050565b600090565b600081519050919050565b600082825260208201905092915050565b6000819050602082019050919050565b600073ffffffffffffffffffffffffffffffffffffffff82169050919050565b60006102b382610288565b9050919050565b6102c3816102a8565b82525050565b6000819050919050565b6102dc816102c9565b82525050565b600081519050919050565b600082825260208201905092915050565b60005b8381101561031c578082015181840152602081019050610301565b60008484015250505050565b6000601f19601f8301169050919050565b6000610344826102e2565b61034e81856102ed565b935061035e8185602086016102fe565b61036781610328565b840191505092915050565b600060c08301600083015161038a60008601826102ba565b50602083015161039d60208601826102ba565b5060408301516103b060408601826102d3565b50606083015184820360608601526103c88282610339565b91505060808301516103dd60808601826102d3565b5060a083015184820360a08601526103f58282610339565b9150508091505092915050565b600061040e8383610372565b905092915050565b6000602082019050919050565b600061042e8261025c565b6104388185610267565b93508360208202850161044a85610278565b8060005b8581101561048657848403895281516104678582610402565b945061047283610416565b925060208a0199505060018101905061044e565b50829750879550505050505092915050565b600060208201905081810360008301526104b28184610423565b905092915050565b6000604051905090565b600080fd5b600080fd5b60006104d982610288565b9050919050565b6104e9816104ce565b81146104f457600080fd5b50565b600081359050610506816104e0565b92915050565b610515816102c9565b811461052057600080fd5b50565b6000813590506105328161050c565b92915050565b600080fd5b600080fd5b7f4e487b7100000000000000000000000000000000000000000000000000000000600052604160045260246000fd5b61057a82610328565b810181811067ffffffffffffffff8211171561059957610598610542565b5b80604052505050565b60006105ac6104ba565b90506105b88282610571565b919050565b600067ffffffffffffffff8211156105d8576105d7610542565b5b6105e182610328565b9050602081019050919050565b82818337600083830152505050565b600061061061060b846105bd565b6105a2565b90508281526020810184848401111561062c5761062b61053d565b5b6106378482856105ee565b509392505050565b600082601f83011261065457610653610538565b5b81356106648482602086016105fd565b91505092915050565b60008060008060808587031215610687576106866104c4565b5b6000610695878288016104f7565b94505060206106a687828801610523565b935050604085013567ffffffffffffffff8111156106c7576106c66104c9565b5b6106d38782880161063f565b925050606085013567ffffffffffffffff8111156106f4576106f36104c9565b5b6107008782880161063f565b91505092959194509250565b610715816102c9565b82525050565b6000602082019050610730600083018461070c565b92915050565b7f4e487b7100000000000000000000000000000000000000000000000000000000600052601160045260246000fd5b6000610770826102c9565b915061077b836102c9565b925082820190508082111561079357610792610736565b5b92915050565b7f4e487b7100000000000000000000000000000000000000000000000000000000600052602260045260246000fd5b600060028204905060018216806107e057607f821691505b6020821081036107f3576107f2610799565b5b50919050565b60008190508160005260206000209050919050565b60006020601f8301049050919050565b600082821b905092915050565b60006008830261085b7fffffffffffffffffffffffffffffffffffffffffffffffffffffffffffffffff8261081e565b610865868361081e565b95508019841693508086168417925050509392505050565b6000819050919050565b60006108a261089d610898846102c9565b61087d565b6102c9565b9050919050565b6000819050919050565b6108bc83610887565b6108d06108c8826108a9565b84845461082b565b825550505050565b600090565b6108e56108d8565b6108f08184846108b3565b505050565b5b81811015610914576109096000826108dd565b6001810190506108f6565b5050565b601f8211156109595761092a816107f9565b6109338461080e565b81016020851015610942578190505b61095661094e8561080e565b8301826108f5565b50505b505050565b600082821c905092915050565b600061097c6000198460080261095e565b1980831691505092915050565b6000610995838361096b565b9150826002028217905092915050565b6109ae826102e2565b67ffffffffffffffff8111156109c7576109c6610542565b5b6109d182546107c8565b6109dc828285610918565b600060209050601f831160018114610a0f57600084156109fd578287015190505b610a078582610989565b865550610a6f565b601f198416610a1d866107f9565b60005b82811015610a4557848901518255600182019150602085019450602081019050610a20565b86831015610a625784890151610a5e601f89168261096b565b8355505b6001600288020188555050505b505050505050565b610a80816102a8565b82525050565b6000610aa1610a9c610a9784610288565b61087d565b610288565b9050919050565b6000610ab382610a86565b9050919050565b6000610ac582610aa8565b9050919050565b610ad581610aba565b82525050565b600082825260208201905092915050565b6000610af7826102e2565b610b018185610adb565b9350610b118185602086016102fe565b610b1a81610328565b840191505092915050565b600060c082019050610b3a6000830189610a77565b610b476020830188610acc565b610b54604083018761070c565b8181036060830152610b668186610aec565b9050610b75608083018561070c565b81810360a0830152610b878184610aec565b905097965050505050505056fea264697066735822122058ed155e4a115c787cacab187f5ba302ba6edb43b2f707acb1abacf888c53fb064736f6c63430008110033",
  "linkReferences": {},
  "deployedLinkReferences": {}
}